{
  "contractName": "cointoss",
  "abi": [
    {
      "inputs": [],
      "payable": false,
      "stateMutability": "nonpayable",
      "type": "constructor"
    },
    {
      "constant": true,
      "inputs": [
        {
          "internalType": "uint256",
          "name": "",
          "type": "uint256"
        }
      ],
      "name": "coinTossWagers",
      "outputs": [
        {
          "internalType": "uint256",
          "name": "wagerIndex",
          "type": "uint256"
        },
        {
          "internalType": "address",
          "name": "user1",
          "type": "address"
        },
        {
          "internalType": "uint256",
          "name": "user1wager",
          "type": "uint256"
        },
        {
          "internalType": "address",
          "name": "user2",
          "type": "address"
        },
        {
          "internalType": "uint256",
          "name": "user2wager",
          "type": "uint256"
        }
      ],
      "payable": false,
      "stateMutability": "view",
      "type": "function"
    },
    {
      "constant": false,
      "inputs": [
        {
          "internalType": "uint256",
          "name": "wagerIndex",
          "type": "uint256"
        },
        {
          "internalType": "uint256",
          "name": "wager",
          "type": "uint256"
        }
      ],
      "name": "enterContest",
      "outputs": [],
      "payable": false,
      "stateMutability": "nonpayable",
      "type": "function"
    },
    {
      "constant": false,
      "inputs": [
        {
          "internalType": "uint256",
          "name": "wagerIndex",
          "type": "uint256"
        }
      ],
      "name": "leaveContest",
      "outputs": [],
      "payable": false,
      "stateMutability": "nonpayable",
      "type": "function"
    }
  ],
  "bytecode": "0x608060405234801561001057600080fd5b50610019610161565b6040518060a0016040528060008152602001600073ffffffffffffffffffffffffffffffffffffffff16815260200160008152602001600073ffffffffffffffffffffffffffffffffffffffff1681526020016000815250905060008090505b600481101561015a5780826000018181525050816000826004811061009a57fe5b600502016000820151816000015560208201518160010160006101000a81548173ffffffffffffffffffffffffffffffffffffffff021916908373ffffffffffffffffffffffffffffffffffffffff1602179055506040820151816002015560608201518160030160006101000a81548173ffffffffffffffffffffffffffffffffffffffff021916908373ffffffffffffffffffffffffffffffffffffffff160217905550608082015181600401559050508080600101915050610079565b50506101bc565b6040518060a0016040528060008152602001600073ffffffffffffffffffffffffffffffffffffffff16815260200160008152602001600073ffffffffffffffffffffffffffffffffffffffff168152602001600081525090565b61039b806101cb6000396000f3fe608060405234801561001057600080fd5b50600436106100415760003560e01c806307b19bfb146100465780635989f046146100745780635c5ed6ff146100ac575b600080fd5b6100726004803603602081101561005c57600080fd5b8101908080359060200190929190505050610162565b005b6100aa6004803603604081101561008a57600080fd5b810190808035906020019092919080359060200190929190505050610165565b005b6100d8600480360360208110156100c257600080fd5b81019080803590602001909291905050506102ed565b604051808681526020018573ffffffffffffffffffffffffffffffffffffffff1673ffffffffffffffffffffffffffffffffffffffff1681526020018481526020018373ffffffffffffffffffffffffffffffffffffffff1673ffffffffffffffffffffffffffffffffffffffff1681526020018281526020019550505050505060405180910390f35b50565b60008090506000600190505b60048210156101ac57836000836004811061018857fe5b6005020160000154141561019f57600090506101ac565b8180600101925050610171565b60018114156101ba576102e7565b600190506000339050600073ffffffffffffffffffffffffffffffffffffffff16600084600481106101e857fe5b6005020160010160009054906101000a900473ffffffffffffffffffffffffffffffffffffffff1673ffffffffffffffffffffffffffffffffffffffff16141561024e5760009150836000846004811061023e57fe5b60050201600201819055506102d6565b600073ffffffffffffffffffffffffffffffffffffffff166000846004811061027357fe5b6005020160030160009054906101000a900473ffffffffffffffffffffffffffffffffffffffff1673ffffffffffffffffffffffffffffffffffffffff1614156102d5576000915083600084600481106102c957fe5b60050201600401819055505b5b60008214156102e4576102e5565b5b505b50505050565b600081600481106102fa57fe5b600502016000915090508060000154908060010160009054906101000a900473ffffffffffffffffffffffffffffffffffffffff16908060020154908060030160009054906101000a900473ffffffffffffffffffffffffffffffffffffffff1690806004015490508556fea265627a7a72315820a14d9bdff6c617a4fd385d80bb54513e801a9b8e8a14adf39221f45b5853c82564736f6c63430005100032",
  "source": "// SPDX-License-Identifier: MIT\npragma solidity >=0.4.22 <0.9.0;\n\ncontract cointoss {\n    struct coinTossWager {\n        uint256 wagerIndex;\n        address user1;\n        uint256 user1wager;\n        address user2;\n        uint256 user2wager;\n    }\n\n    coinTossWager[4] public coinTossWagers;\n\n    constructor() public {\n        coinTossWager memory defaultCoinTossWager = coinTossWager(\n            0,\n            address(0),\n            0,\n            address(0),\n            0\n        );\n        for (uint256 i = 0; i < 4; i++) {\n            defaultCoinTossWager.wagerIndex = i;\n            coinTossWagers[i] = defaultCoinTossWager;\n        }\n    }\n\n\n    /*\n    When user clicks on the start game button.\n  */\n    //should this return false when fail?\n    function enterContest(uint256 wagerIndex, uint256 wager) public {\n        //check if wagerIndex has room\n        uint256 count = 0;\n        uint256 failed = 1;\n        for (count; count < 4; count++) {\n            if (coinTossWagers[count].wagerIndex == wagerIndex) {\n                failed = 0;\n                break;\n            }\n        }\n\n        //if not return wager and the end condition.\n        if (failed == 1) {\n            //wagerIndex not found\n            //end somehow and return money\n        } else {\n            //enter user into wager\n            failed = 1;\n            address newPlayer = msg.sender;\n            coinTossWager[];\n\n            //check if can be user1,\n            if (coinTossWagers[count].user1 == address(0)) {\n                failed = 0;\n                coinTossWagers[count].user1wager = wager;\n            } else if (coinTossWagers[count].user2 == address(0)) {\n                //check if can be user2.\n                failed = 0;\n                coinTossWagers[count].user2wager = wager;\n            }\n\n            if (failed == 0) {\n                //end contract and return money\n                //user cannot enter wager\n            } else {\n                //if both players have entered and are now ready, execute toss fn and return fn.\n                //is this how you do that?\n            }\n\n            //need to write tests to test this function after.\n        }\n    }\n\n    /*\n    only if other player did not ready up yet. \n  */\n    function leaveContest(uint256 wagerIndex) public {}\n\n    //way to end wager after 60 seconds inactivity.\n}\n",
  "sourcePath": "C:/Users/chris/Desktop/stuff/web projects/secureCoinToss/contracts/cointoss.sol",
  "compiler": {
    "name": "solc",
    "version": "0.5.16+commit.9c3226ce.Emscripten.clang"
  },
  "schemaVersion": "3.4.1",
  "updatedAt": "2021-07-23T19:30:35.426Z",
  "networkType": "ethereum",
  "devdoc": {
    "methods": {}
  },
  "userdoc": {
    "methods": {}
  }
}