{
  "contractName": "cointoss",
  "abi": [
    {
      "inputs": [],
      "payable": false,
      "stateMutability": "nonpayable",
      "type": "constructor"
    },
    {
      "anonymous": false,
      "inputs": [
        {
          "indexed": false,
          "internalType": "address",
          "name": "receiver",
          "type": "address"
        },
        {
          "indexed": false,
          "internalType": "uint256",
          "name": "amount",
          "type": "uint256"
        }
      ],
      "name": "LogWithdrawal",
      "type": "event"
    },
    {
      "constant": true,
      "inputs": [
        {
          "internalType": "uint256",
          "name": "",
          "type": "uint256"
        }
      ],
      "name": "coinTossWagers",
      "outputs": [
        {
          "internalType": "uint256",
          "name": "wagerIndex",
          "type": "uint256"
        },
        {
          "internalType": "address",
          "name": "user1",
          "type": "address"
        },
        {
          "internalType": "uint256",
          "name": "user1wager",
          "type": "uint256"
        },
        {
          "internalType": "address",
          "name": "user2",
          "type": "address"
        },
        {
          "internalType": "uint256",
          "name": "user2wager",
          "type": "uint256"
        },
        {
          "internalType": "address",
          "name": "winner",
          "type": "address"
        }
      ],
      "payable": false,
      "stateMutability": "view",
      "type": "function"
    },
    {
      "constant": false,
      "inputs": [
        {
          "internalType": "uint256",
          "name": "wagerIndex",
          "type": "uint256"
        },
        {
          "internalType": "uint256",
          "name": "wager",
          "type": "uint256"
        }
      ],
      "name": "enterContest",
      "outputs": [],
      "payable": true,
      "stateMutability": "payable",
      "type": "function"
    },
    {
      "constant": false,
      "inputs": [
        {
          "internalType": "uint256",
          "name": "wagerIndex",
          "type": "uint256"
        }
      ],
      "name": "leaveContest",
      "outputs": [],
      "payable": false,
      "stateMutability": "nonpayable",
      "type": "function"
    }
  ],
  "bytecode": "0x608060405234801561001057600080fd5b506100196101c5565b6040518060c0016040528060008152602001600073ffffffffffffffffffffffffffffffffffffffff16815260200160008152602001600073ffffffffffffffffffffffffffffffffffffffff16815260200160008152602001600073ffffffffffffffffffffffffffffffffffffffff16815250905060008090505b60048110156101be578082600001818152505081600082600481106100b757fe5b600602016000820151816000015560208201518160010160006101000a81548173ffffffffffffffffffffffffffffffffffffffff021916908373ffffffffffffffffffffffffffffffffffffffff1602179055506040820151816002015560608201518160030160006101000a81548173ffffffffffffffffffffffffffffffffffffffff021916908373ffffffffffffffffffffffffffffffffffffffff1602179055506080820151816004015560a08201518160050160006101000a81548173ffffffffffffffffffffffffffffffffffffffff021916908373ffffffffffffffffffffffffffffffffffffffff1602179055509050508080600101915050610096565b505061023d565b6040518060c0016040528060008152602001600073ffffffffffffffffffffffffffffffffffffffff16815260200160008152602001600073ffffffffffffffffffffffffffffffffffffffff16815260200160008152602001600073ffffffffffffffffffffffffffffffffffffffff1681525090565b610da98061024c6000396000f3fe6080604052600436106100345760003560e01c806307b19bfb146100395780635989f046146100745780635c5ed6ff146100ac575b600080fd5b34801561004557600080fd5b506100726004803603602081101561005c57600080fd5b81019080803590602001909291905050506101a2565b005b6100aa6004803603604081101561008a57600080fd5b8101908080359060200190929190803590602001909291905050506104f6565b005b3480156100b857600080fd5b506100e5600480360360208110156100cf57600080fd5b81019080803590602001909291905050506108a7565b604051808781526020018673ffffffffffffffffffffffffffffffffffffffff1673ffffffffffffffffffffffffffffffffffffffff1681526020018581526020018473ffffffffffffffffffffffffffffffffffffffff1673ffffffffffffffffffffffffffffffffffffffff1681526020018381526020018273ffffffffffffffffffffffffffffffffffffffff1673ffffffffffffffffffffffffffffffffffffffff168152602001965050505050505060405180910390f35b600081101580156101b35750600481105b610208576040517f08c379a0000000000000000000000000000000000000000000000000000000008152600401808060200182810382526028815260200180610ce66028913960400191505060405180910390fd5b610210610c3f565b6000826004811061021d57fe5b600602016040518060c0016040529081600082015481526020016001820160009054906101000a900473ffffffffffffffffffffffffffffffffffffffff1673ffffffffffffffffffffffffffffffffffffffff1673ffffffffffffffffffffffffffffffffffffffff168152602001600282015481526020016003820160009054906101000a900473ffffffffffffffffffffffffffffffffffffffff1673ffffffffffffffffffffffffffffffffffffffff1673ffffffffffffffffffffffffffffffffffffffff168152602001600482015481526020016005820160009054906101000a900473ffffffffffffffffffffffffffffffffffffffff1673ffffffffffffffffffffffffffffffffffffffff1673ffffffffffffffffffffffffffffffffffffffff168152505090503373ffffffffffffffffffffffffffffffffffffffff16816020015173ffffffffffffffffffffffffffffffffffffffff1614156103f757600080836004811061039457fe5b6006020160010160006101000a81548173ffffffffffffffffffffffffffffffffffffffff021916908373ffffffffffffffffffffffffffffffffffffffff16021790555060008083600481106103e757fe5b60060201600201819055506104f2565b3373ffffffffffffffffffffffffffffffffffffffff16816060015173ffffffffffffffffffffffffffffffffffffffff1614156104a057600080836004811061043d57fe5b6006020160030160006101000a81548173ffffffffffffffffffffffffffffffffffffffff021916908373ffffffffffffffffffffffffffffffffffffffff160217905550600080836004811061049057fe5b60060201600401819055506104f1565b6040517f08c379a0000000000000000000000000000000000000000000000000000000008152600401808060200182810382526045815260200180610d0e6045913960600191505060405180910390fd5b5b5050565b600082101580156105075750600482105b61055c576040517f08c379a0000000000000000000000000000000000000000000000000000000008152600401808060200182810382526028815260200180610ce66028913960400191505060405180910390fd5b600081116105d2576040517f08c379a000000000000000000000000000000000000000000000000000000000815260040180806020018281038252601f8152602001807f5761676572206d757374206265206120706f736974697665206e756d6265720081525060200191505060405180910390fd5b80341461062a576040517f08c379a0000000000000000000000000000000000000000000000000000000008152600401808060200182810382526022815260200180610d536022913960400191505060405180910390fd5b60008090506000600190505b600482101561067157836000836004811061064d57fe5b600602016000015414156106645760009050610671565b8180600101925050610636565b600181141561067f576108a1565b600190506000339050600073ffffffffffffffffffffffffffffffffffffffff16600084600481106106ad57fe5b6006020160010160009054906101000a900473ffffffffffffffffffffffffffffffffffffffff1673ffffffffffffffffffffffffffffffffffffffff1614156107665760009150806000846004811061070357fe5b6006020160010160006101000a81548173ffffffffffffffffffffffffffffffffffffffff021916908373ffffffffffffffffffffffffffffffffffffffff160217905550836000846004811061075657fe5b6006020160020181905550610896565b600073ffffffffffffffffffffffffffffffffffffffff166000846004811061078b57fe5b6006020160030160009054906101000a900473ffffffffffffffffffffffffffffffffffffffff1673ffffffffffffffffffffffffffffffffffffffff161415610844576000915080600084600481106107e157fe5b6006020160030160006101000a81548173ffffffffffffffffffffffffffffffffffffffff021916908373ffffffffffffffffffffffffffffffffffffffff160217905550836000846004811061083457fe5b6006020160040181905550610895565b6040517f08c379a000000000000000000000000000000000000000000000000000000000815260040180806020018281038252602e815260200180610cb8602e913960400191505060405180910390fd5b5b61089f83610946565b505b50505050565b600081600481106108b457fe5b600602016000915090508060000154908060010160009054906101000a900473ffffffffffffffffffffffffffffffffffffffff16908060020154908060030160009054906101000a900473ffffffffffffffffffffffffffffffffffffffff16908060040154908060050160009054906101000a900473ffffffffffffffffffffffffffffffffffffffff16905086565b600080826004811061095457fe5b6006020160010160009054906101000a900473ffffffffffffffffffffffffffffffffffffffff169050600080836004811061098c57fe5b6006020160030160009054906101000a900473ffffffffffffffffffffffffffffffffffffffff169050600073ffffffffffffffffffffffffffffffffffffffff168273ffffffffffffffffffffffffffffffffffffffff1614158015610a205750600073ffffffffffffffffffffffffffffffffffffffff168173ffffffffffffffffffffffffffffffffffffffff1614155b15610c3a5760006002424460405160200180838152602001828152602001925050506040516020818303038152906040528051906020012060001c81610a6257fe5b0660ff1690506000808560048110610a7657fe5b600602016004015460008660048110610a8b57fe5b6006020160020154019050600080831415610aa857849050610aac565b8390505b8273ffffffffffffffffffffffffffffffffffffffff166108fc839081150290604051600060405180830381858888f19350505050158015610af2573d6000803e3d6000fd5b506000808760048110610b0157fe5b6006020160010160006101000a81548173ffffffffffffffffffffffffffffffffffffffff021916908373ffffffffffffffffffffffffffffffffffffffff1602179055506000808760048110610b5457fe5b6006020160030160006101000a81548173ffffffffffffffffffffffffffffffffffffffff021916908373ffffffffffffffffffffffffffffffffffffffff1602179055506000808760048110610ba757fe5b60060201600201819055506000808760048110610bc057fe5b60060201600401819055507fb4214c8c54fc7442f36d3682f59aebaf09358a4431835b30efb29d52cf9e1e918183604051808373ffffffffffffffffffffffffffffffffffffffff1673ffffffffffffffffffffffffffffffffffffffff1681526020018281526020019250505060405180910390a15050505b505050565b6040518060c0016040528060008152602001600073ffffffffffffffffffffffffffffffffffffffff16815260200160008152602001600073ffffffffffffffffffffffffffffffffffffffff16815260200160008152602001600073ffffffffffffffffffffffffffffffffffffffff168152509056fe4572726f7220656e746572696e6720696e746f20776167657220696e6465782c206d696768742062652066756c6c496e76616c696420776167657220696e6465782c206d757374206265206265747765656e20302d334572726f72206c656176696e6720636f6e746573742c2065697468657220696e636f72726563742075736572206f7220696e636f727265637420776167657220696e646578416d6f756e742073656e74206d75737420626520657175616c20746f207761676572a265627a7a72315820ae98e72b10692e00b13fed326345dc30fe97d1ee61465e25901fcd85e68770c564736f6c63430005100032",
  "source": "// SPDX-License-Identifier: MIT\npragma solidity >=0.4.22 <0.9.0;\n\ncontract cointoss {\n    struct coinTossWager {\n        uint256 wagerIndex;\n        address user1;\n        uint256 user1wager;\n        address user2;\n        uint256 user2wager;\n        address winner;\n    }\n\n    coinTossWager[4] public coinTossWagers;\n\n    event LogWithdrawal(address receiver, uint256 amount);\n\n    constructor() public {\n        coinTossWager memory defaultCoinTossWager = coinTossWager(\n            0,\n            address(0),\n            0,\n            address(0),\n            0,\n            address(0)\n        );\n        for (uint256 i = 0; i < 4; i++) {\n            defaultCoinTossWager.wagerIndex = i;\n            coinTossWagers[i] = defaultCoinTossWager;\n        }\n    }\n\n    /**\n    called after user enters a contest to check if its full, if it is then\n    execute the coin toss and payout.\n     */\n    function executeWager(uint256 wagerIndex) private {\n        address user1 = coinTossWagers[wagerIndex].user1;\n        address user2 = coinTossWagers[wagerIndex].user2;\n\n        if (user1 != address(0) && user2 != address(0)) {\n            //valid wager\n            //get number for coin flip between 0 and 1\n            //i know this isnt true randomness\n            uint256 winner = uint8(\n                uint256(\n                    keccak256(\n                        abi.encodePacked(block.timestamp, block.difficulty)\n                    )\n                ) % 2\n            );\n\n            uint256 reward = coinTossWagers[wagerIndex].user1wager +\n                coinTossWagers[wagerIndex].user2wager;\n            address winnerAddress;\n\n            if (winner == 0) {\n                winnerAddress = user1;\n            } else {\n                winnerAddress = user2;\n            }\n\n            //pay out winner\n            address(winner).transfer(reward);\n\n            //delete contest entry\n            coinTossWagers[wagerIndex].user1 = address(0);\n            coinTossWagers[wagerIndex].user2 = address(0);\n            coinTossWagers[wagerIndex].user1wager = 0;\n            coinTossWagers[wagerIndex].user2wager = 0;\n\n            //emit so users on the web can tell who won.\n            emit LogWithdrawal(winnerAddress, reward);\n        }\n    }\n\n    /*\n    When user clicks on the start game button.\n  */\n    //should this return false when fail?\n    function enterContest(uint256 wagerIndex, uint256 wager) public payable {\n        require(\n            wagerIndex >= 0 && wagerIndex < 4,\n            \"Invalid wager index, must be between 0-3\"\n        );\n        require(wager > 0, \"Wager must be a positive number\");\n        require(msg.value == wager, \"Amount sent must be equal to wager\");\n\n        //check if wagerIndex has room\n        uint256 count = 0;\n        uint256 failed = 1;\n        for (count; count < 4; count++) {\n            if (coinTossWagers[count].wagerIndex == wagerIndex) {\n                failed = 0;\n                break;\n            }\n        }\n\n        //if not return wager and the end condition.\n        if (failed == 1) {\n            //wagerIndex not found\n            //end somehow and return money\n        } else {\n            //enter user into wager\n            failed = 1;\n            address newPlayer = msg.sender;\n            //check if can be user1,\n            //check if user is already registered into wager\n            if (coinTossWagers[count].user1 == address(0)) {\n                failed = 0;\n                coinTossWagers[count].user1 = newPlayer;\n                coinTossWagers[count].user1wager = wager;\n            } else if (coinTossWagers[count].user2 == address(0)) {\n                //check if can be user2.\n                failed = 0;\n                coinTossWagers[count].user2 = newPlayer;\n                coinTossWagers[count].user2wager = wager;\n            } else {\n                //error\n                revert(\"Error entering into wager index, might be full\");\n            }\n            executeWager(count);\n        }\n    }\n\n    /*\n    only if other player did not ready up yet. \n  */\n    function leaveContest(uint256 wagerIndex) public {\n        require(\n            wagerIndex >= 0 && wagerIndex < 4,\n            \"Invalid wager index, must be between 0-3\"\n        );\n\n        coinTossWager memory wagerSet = coinTossWagers[wagerIndex];\n        if (wagerSet.user1 == msg.sender) {\n            coinTossWagers[wagerIndex].user1 = address(0);\n            coinTossWagers[wagerIndex].user1wager = 0;\n        } else if (wagerSet.user2 == msg.sender) {\n            coinTossWagers[wagerIndex].user2 = address(0);\n            coinTossWagers[wagerIndex].user2wager = 0;\n        } else {\n            revert(\n                \"Error leaving contest, either incorrect user or incorrect wager index\"\n            );\n        }\n    }\n}\n",
  "sourcePath": "C:/Users/chris/Desktop/stuff/web projects/secureCoinToss/smartcontract/contracts/cointoss.sol",
  "compiler": {
    "name": "solc",
    "version": "0.5.16+commit.9c3226ce.Emscripten.clang"
  },
  "schemaVersion": "3.4.1",
  "updatedAt": "2021-07-27T14:36:44.007Z",
  "networkType": "ethereum",
  "devdoc": {
    "methods": {}
  },
  "userdoc": {
    "methods": {}
  }
}